{
	"project-20/contracts/contract.sol": {
		"DonationTracker": {
			"abi": [
				{
					"anonymous": false,
					"inputs": [
						{
							"indexed": true,
							"internalType": "address",
							"name": "donor",
							"type": "address"
						},
						{
							"indexed": false,
							"internalType": "string",
							"name": "cause",
							"type": "string"
						},
						{
							"indexed": false,
							"internalType": "uint256",
							"name": "amount",
							"type": "uint256"
						},
						{
							"indexed": false,
							"internalType": "uint256",
							"name": "totalDonations",
							"type": "uint256"
						}
					],
					"name": "DonationMade",
					"type": "event"
				},
				{
					"inputs": [
						{
							"internalType": "string",
							"name": "cause",
							"type": "string"
						}
					],
					"name": "donateToCause",
					"outputs": [],
					"stateMutability": "payable",
					"type": "function"
				},
				{
					"inputs": [
						{
							"internalType": "string",
							"name": "",
							"type": "string"
						}
					],
					"name": "donationsForCause",
					"outputs": [
						{
							"internalType": "uint256",
							"name": "",
							"type": "uint256"
						}
					],
					"stateMutability": "view",
					"type": "function"
				},
				{
					"inputs": [
						{
							"internalType": "string",
							"name": "cause",
							"type": "string"
						}
					],
					"name": "getTotalDonations",
					"outputs": [
						{
							"internalType": "uint256",
							"name": "",
							"type": "uint256"
						}
					],
					"stateMutability": "view",
					"type": "function"
				}
			],
			"devdoc": {
				"kind": "dev",
				"methods": {},
				"version": 1
			},
			"evm": {
				"assembly": "    /* \"project-20/contracts/contract.sol\":57:1062  contract DonationTracker {... */\n  mstore(0x40, 0x80)\n  callvalue\n  dup1\n  iszero\n  tag_1\n  jumpi\n  0x00\n  dup1\n  revert\ntag_1:\n  pop\n  dataSize(sub_0)\n  dup1\n  dataOffset(sub_0)\n  0x00\n  codecopy\n  0x00\n  return\nstop\n\nsub_0: assembly {\n        /* \"project-20/contracts/contract.sol\":57:1062  contract DonationTracker {... */\n      mstore(0x40, 0x80)\n      jumpi(tag_1, lt(calldatasize, 0x04))\n      shr(0xe0, calldataload(0x00))\n      dup1\n      0x3936c8e8\n      eq\n      tag_2\n      jumpi\n      dup1\n      0x4e0c1e37\n      eq\n      tag_3\n      jumpi\n      dup1\n      0x88b867df\n      eq\n      tag_4\n      jumpi\n    tag_1:\n      0x00\n      dup1\n      revert\n        /* \"project-20/contracts/contract.sol\":414:790  function donateToCause(string calldata cause) external payable {... */\n    tag_2:\n      tag_5\n      0x04\n      dup1\n      calldatasize\n      sub\n      dup2\n      add\n      swap1\n      tag_6\n      swap2\n      swap1\n      tag_7\n      jump\t// in\n    tag_6:\n      tag_8\n      jump\t// in\n    tag_5:\n      stop\n        /* \"project-20/contracts/contract.sol\":864:1060  function getTotalDonations(string calldata cause) external view returns (uint256) {... */\n    tag_3:\n      callvalue\n      dup1\n      iszero\n      tag_9\n      jumpi\n      0x00\n      dup1\n      revert\n    tag_9:\n      pop\n      tag_10\n      0x04\n      dup1\n      calldatasize\n      sub\n      dup2\n      add\n      swap1\n      tag_11\n      swap2\n      swap1\n      tag_7\n      jump\t// in\n    tag_11:\n      tag_12\n      jump\t// in\n    tag_10:\n      mload(0x40)\n      tag_13\n      swap2\n      swap1\n      tag_14\n      jump\t// in\n    tag_13:\n      mload(0x40)\n      dup1\n      swap2\n      sub\n      swap1\n      return\n        /* \"project-20/contracts/contract.sol\":144:195  mapping(string => uint256) public donationsForCause */\n    tag_4:\n      callvalue\n      dup1\n      iszero\n      tag_15\n      jumpi\n      0x00\n      dup1\n      revert\n    tag_15:\n      pop\n      tag_16\n      0x04\n      dup1\n      calldatasize\n      sub\n      dup2\n      add\n      swap1\n      tag_17\n      swap2\n      swap1\n      tag_18\n      jump\t// in\n    tag_17:\n      tag_19\n      jump\t// in\n    tag_16:\n      mload(0x40)\n      tag_20\n      swap2\n      swap1\n      tag_14\n      jump\t// in\n    tag_20:\n      mload(0x40)\n      dup1\n      swap2\n      sub\n      swap1\n      return\n        /* \"project-20/contracts/contract.sol\":414:790  function donateToCause(string calldata cause) external payable {... */\n    tag_8:\n        /* \"project-20/contracts/contract.sol\":507:508  0 */\n      0x00\n        /* \"project-20/contracts/contract.sol\":495:504  msg.value */\n      callvalue\n        /* \"project-20/contracts/contract.sol\":495:508  msg.value > 0 */\n      gt\n        /* \"project-20/contracts/contract.sol\":487:547  require(msg.value > 0, \"Donation must be greater than zero\") */\n      tag_22\n      jumpi\n      mload(0x40)\n      0x08c379a000000000000000000000000000000000000000000000000000000000\n      dup2\n      mstore\n      0x04\n      add\n      tag_23\n      swap1\n      tag_24\n      jump\t// in\n    tag_23:\n      mload(0x40)\n      dup1\n      swap2\n      sub\n      swap1\n      revert\n    tag_22:\n        /* \"project-20/contracts/contract.sol\":648:657  msg.value */\n      callvalue\n        /* \"project-20/contracts/contract.sol\":620:637  donationsForCause */\n      0x00\n        /* \"project-20/contracts/contract.sol\":638:643  cause */\n      dup4\n      dup4\n        /* \"project-20/contracts/contract.sol\":620:644  donationsForCause[cause] */\n      mload(0x40)\n      tag_25\n      swap3\n      swap2\n      swap1\n      tag_26\n      jump\t// in\n    tag_25:\n      swap1\n      dup2\n      mstore\n      0x20\n      add\n      mload(0x40)\n      dup1\n      swap2\n      sub\n      swap1\n      keccak256\n      0x00\n        /* \"project-20/contracts/contract.sol\":620:657  donationsForCause[cause] += msg.value */\n      dup3\n      dup3\n      sload\n      tag_27\n      swap2\n      swap1\n      tag_28\n      jump\t// in\n    tag_27:\n      swap3\n      pop\n      pop\n      dup2\n      swap1\n      sstore\n      pop\n        /* \"project-20/contracts/contract.sol\":728:738  msg.sender */\n      caller\n        /* \"project-20/contracts/contract.sol\":715:783  DonationMade(msg.sender, cause, msg.value, donationsForCause[cause]) */\n      0xffffffffffffffffffffffffffffffffffffffff\n      and\n      0x71399051bc95e34c2315bbb2c6cf0df79957a51b6d385f9dd26fc1a33c6926b1\n        /* \"project-20/contracts/contract.sol\":740:745  cause */\n      dup4\n      dup4\n        /* \"project-20/contracts/contract.sol\":747:756  msg.value */\n      callvalue\n        /* \"project-20/contracts/contract.sol\":758:775  donationsForCause */\n      0x00\n        /* \"project-20/contracts/contract.sol\":776:781  cause */\n      dup8\n      dup8\n        /* \"project-20/contracts/contract.sol\":758:782  donationsForCause[cause] */\n      mload(0x40)\n      tag_29\n      swap3\n      swap2\n      swap1\n      tag_26\n      jump\t// in\n    tag_29:\n      swap1\n      dup2\n      mstore\n      0x20\n      add\n      mload(0x40)\n      dup1\n      swap2\n      sub\n      swap1\n      keccak256\n      sload\n        /* \"project-20/contracts/contract.sol\":715:783  DonationMade(msg.sender, cause, msg.value, donationsForCause[cause]) */\n      mload(0x40)\n      tag_30\n      swap5\n      swap4\n      swap3\n      swap2\n      swap1\n      tag_31\n      jump\t// in\n    tag_30:\n      mload(0x40)\n      dup1\n      swap2\n      sub\n      swap1\n      log2\n        /* \"project-20/contracts/contract.sol\":414:790  function donateToCause(string calldata cause) external payable {... */\n      pop\n      pop\n      jump\t// out\n        /* \"project-20/contracts/contract.sol\":864:1060  function getTotalDonations(string calldata cause) external view returns (uint256) {... */\n    tag_12:\n        /* \"project-20/contracts/contract.sol\":937:944  uint256 */\n      0x00\n        /* \"project-20/contracts/contract.sol\":1029:1046  donationsForCause */\n      dup1\n        /* \"project-20/contracts/contract.sol\":1047:1052  cause */\n      dup4\n      dup4\n        /* \"project-20/contracts/contract.sol\":1029:1053  donationsForCause[cause] */\n      mload(0x40)\n      tag_33\n      swap3\n      swap2\n      swap1\n      tag_26\n      jump\t// in\n    tag_33:\n      swap1\n      dup2\n      mstore\n      0x20\n      add\n      mload(0x40)\n      dup1\n      swap2\n      sub\n      swap1\n      keccak256\n      sload\n        /* \"project-20/contracts/contract.sol\":1022:1053  return donationsForCause[cause] */\n      swap1\n      pop\n        /* \"project-20/contracts/contract.sol\":864:1060  function getTotalDonations(string calldata cause) external view returns (uint256) {... */\n      swap3\n      swap2\n      pop\n      pop\n      jump\t// out\n        /* \"project-20/contracts/contract.sol\":144:195  mapping(string => uint256) public donationsForCause */\n    tag_19:\n      0x00\n      dup2\n      dup1\n      mload\n      0x20\n      dup2\n      add\n      dup3\n      add\n      dup1\n      mload\n      dup5\n      dup3\n      mstore\n      0x20\n      dup4\n      add\n      0x20\n      dup6\n      add\n      keccak256\n      dup2\n      dup4\n      mstore\n      dup1\n      swap6\n      pop\n      pop\n      pop\n      pop\n      pop\n      pop\n      0x00\n      swap2\n      pop\n      swap1\n      pop\n      sload\n      dup2\n      jump\t// out\n        /* \"#utility.yul\":7:82   */\n    tag_34:\n        /* \"#utility.yul\":40:46   */\n      0x00\n        /* \"#utility.yul\":73:75   */\n      0x40\n        /* \"#utility.yul\":67:76   */\n      mload\n        /* \"#utility.yul\":57:76   */\n      swap1\n      pop\n        /* \"#utility.yul\":7:82   */\n      swap1\n      jump\t// out\n        /* \"#utility.yul\":88:205   */\n    tag_35:\n        /* \"#utility.yul\":197:198   */\n      0x00\n        /* \"#utility.yul\":194:195   */\n      dup1\n        /* \"#utility.yul\":187:199   */\n      revert\n        /* \"#utility.yul\":211:328   */\n    tag_36:\n        /* \"#utility.yul\":320:321   */\n      0x00\n        /* \"#utility.yul\":317:318   */\n      dup1\n        /* \"#utility.yul\":310:322   */\n      revert\n        /* \"#utility.yul\":334:451   */\n    tag_37:\n        /* \"#utility.yul\":443:444   */\n      0x00\n        /* \"#utility.yul\":440:441   */\n      dup1\n        /* \"#utility.yul\":433:445   */\n      revert\n        /* \"#utility.yul\":457:574   */\n    tag_38:\n        /* \"#utility.yul\":566:567   */\n      0x00\n        /* \"#utility.yul\":563:564   */\n      dup1\n        /* \"#utility.yul\":556:568   */\n      revert\n        /* \"#utility.yul\":580:697   */\n    tag_39:\n        /* \"#utility.yul\":689:690   */\n      0x00\n        /* \"#utility.yul\":686:687   */\n      dup1\n        /* \"#utility.yul\":679:691   */\n      revert\n        /* \"#utility.yul\":717:1270   */\n    tag_40:\n        /* \"#utility.yul\":775:783   */\n      0x00\n        /* \"#utility.yul\":785:791   */\n      dup1\n        /* \"#utility.yul\":835:838   */\n      dup4\n        /* \"#utility.yul\":828:832   */\n      0x1f\n        /* \"#utility.yul\":820:826   */\n      dup5\n        /* \"#utility.yul\":816:833   */\n      add\n        /* \"#utility.yul\":812:839   */\n      slt\n        /* \"#utility.yul\":802:924   */\n      tag_67\n      jumpi\n        /* \"#utility.yul\":843:922   */\n      tag_68\n      tag_37\n      jump\t// in\n    tag_68:\n        /* \"#utility.yul\":802:924   */\n    tag_67:\n        /* \"#utility.yul\":956:962   */\n      dup3\n        /* \"#utility.yul\":943:963   */\n      calldataload\n        /* \"#utility.yul\":933:963   */\n      swap1\n      pop\n        /* \"#utility.yul\":986:1004   */\n      0xffffffffffffffff\n        /* \"#utility.yul\":978:984   */\n      dup2\n        /* \"#utility.yul\":975:1005   */\n      gt\n        /* \"#utility.yul\":972:1089   */\n      iszero\n      tag_69\n      jumpi\n        /* \"#utility.yul\":1008:1087   */\n      tag_70\n      tag_38\n      jump\t// in\n    tag_70:\n        /* \"#utility.yul\":972:1089   */\n    tag_69:\n        /* \"#utility.yul\":1122:1126   */\n      0x20\n        /* \"#utility.yul\":1114:1120   */\n      dup4\n        /* \"#utility.yul\":1110:1127   */\n      add\n        /* \"#utility.yul\":1098:1127   */\n      swap2\n      pop\n        /* \"#utility.yul\":1176:1179   */\n      dup4\n        /* \"#utility.yul\":1168:1172   */\n      0x01\n        /* \"#utility.yul\":1160:1166   */\n      dup3\n        /* \"#utility.yul\":1156:1173   */\n      mul\n        /* \"#utility.yul\":1146:1154   */\n      dup4\n        /* \"#utility.yul\":1142:1174   */\n      add\n        /* \"#utility.yul\":1139:1180   */\n      gt\n        /* \"#utility.yul\":1136:1264   */\n      iszero\n      tag_71\n      jumpi\n        /* \"#utility.yul\":1183:1262   */\n      tag_72\n      tag_39\n      jump\t// in\n    tag_72:\n        /* \"#utility.yul\":1136:1264   */\n    tag_71:\n        /* \"#utility.yul\":717:1270   */\n      swap3\n      pop\n      swap3\n      swap1\n      pop\n      jump\t// out\n        /* \"#utility.yul\":1276:1805   */\n    tag_7:\n        /* \"#utility.yul\":1347:1353   */\n      0x00\n        /* \"#utility.yul\":1355:1361   */\n      dup1\n        /* \"#utility.yul\":1404:1406   */\n      0x20\n        /* \"#utility.yul\":1392:1401   */\n      dup4\n        /* \"#utility.yul\":1383:1390   */\n      dup6\n        /* \"#utility.yul\":1379:1402   */\n      sub\n        /* \"#utility.yul\":1375:1407   */\n      slt\n        /* \"#utility.yul\":1372:1491   */\n      iszero\n      tag_74\n      jumpi\n        /* \"#utility.yul\":1410:1489   */\n      tag_75\n      tag_35\n      jump\t// in\n    tag_75:\n        /* \"#utility.yul\":1372:1491   */\n    tag_74:\n        /* \"#utility.yul\":1558:1559   */\n      0x00\n        /* \"#utility.yul\":1547:1556   */\n      dup4\n        /* \"#utility.yul\":1543:1560   */\n      add\n        /* \"#utility.yul\":1530:1561   */\n      calldataload\n        /* \"#utility.yul\":1588:1606   */\n      0xffffffffffffffff\n        /* \"#utility.yul\":1580:1586   */\n      dup2\n        /* \"#utility.yul\":1577:1607   */\n      gt\n        /* \"#utility.yul\":1574:1691   */\n      iszero\n      tag_76\n      jumpi\n        /* \"#utility.yul\":1610:1689   */\n      tag_77\n      tag_36\n      jump\t// in\n    tag_77:\n        /* \"#utility.yul\":1574:1691   */\n    tag_76:\n        /* \"#utility.yul\":1723:1788   */\n      tag_78\n        /* \"#utility.yul\":1780:1787   */\n      dup6\n        /* \"#utility.yul\":1771:1777   */\n      dup3\n        /* \"#utility.yul\":1760:1769   */\n      dup7\n        /* \"#utility.yul\":1756:1778   */\n      add\n        /* \"#utility.yul\":1723:1788   */\n      tag_40\n      jump\t// in\n    tag_78:\n        /* \"#utility.yul\":1705:1788   */\n      swap3\n      pop\n      swap3\n      pop\n        /* \"#utility.yul\":1501:1798   */\n      pop\n        /* \"#utility.yul\":1276:1805   */\n      swap3\n      pop\n      swap3\n      swap1\n      pop\n      jump\t// out\n        /* \"#utility.yul\":1811:1888   */\n    tag_41:\n        /* \"#utility.yul\":1848:1855   */\n      0x00\n        /* \"#utility.yul\":1877:1882   */\n      dup2\n        /* \"#utility.yul\":1866:1882   */\n      swap1\n      pop\n        /* \"#utility.yul\":1811:1888   */\n      swap2\n      swap1\n      pop\n      jump\t// out\n        /* \"#utility.yul\":1894:2012   */\n    tag_42:\n        /* \"#utility.yul\":1981:2005   */\n      tag_81\n        /* \"#utility.yul\":1999:2004   */\n      dup2\n        /* \"#utility.yul\":1981:2005   */\n      tag_41\n      jump\t// in\n    tag_81:\n        /* \"#utility.yul\":1976:1979   */\n      dup3\n        /* \"#utility.yul\":1969:2006   */\n      mstore\n        /* \"#utility.yul\":1894:2012   */\n      pop\n      pop\n      jump\t// out\n        /* \"#utility.yul\":2018:2240   */\n    tag_14:\n        /* \"#utility.yul\":2111:2115   */\n      0x00\n        /* \"#utility.yul\":2149:2151   */\n      0x20\n        /* \"#utility.yul\":2138:2147   */\n      dup3\n        /* \"#utility.yul\":2134:2152   */\n      add\n        /* \"#utility.yul\":2126:2152   */\n      swap1\n      pop\n        /* \"#utility.yul\":2162:2233   */\n      tag_83\n        /* \"#utility.yul\":2230:2231   */\n      0x00\n        /* \"#utility.yul\":2219:2228   */\n      dup4\n        /* \"#utility.yul\":2215:2232   */\n      add\n        /* \"#utility.yul\":2206:2212   */\n      dup5\n        /* \"#utility.yul\":2162:2233   */\n      tag_42\n      jump\t// in\n    tag_83:\n        /* \"#utility.yul\":2018:2240   */\n      swap3\n      swap2\n      pop\n      pop\n      jump\t// out\n        /* \"#utility.yul\":2246:2363   */\n    tag_43:\n        /* \"#utility.yul\":2355:2356   */\n      0x00\n        /* \"#utility.yul\":2352:2353   */\n      dup1\n        /* \"#utility.yul\":2345:2357   */\n      revert\n        /* \"#utility.yul\":2369:2471   */\n    tag_44:\n        /* \"#utility.yul\":2410:2416   */\n      0x00\n        /* \"#utility.yul\":2461:2463   */\n      0x1f\n        /* \"#utility.yul\":2457:2464   */\n      not\n        /* \"#utility.yul\":2452:2454   */\n      0x1f\n        /* \"#utility.yul\":2445:2450   */\n      dup4\n        /* \"#utility.yul\":2441:2455   */\n      add\n        /* \"#utility.yul\":2437:2465   */\n      and\n        /* \"#utility.yul\":2427:2465   */\n      swap1\n      pop\n        /* \"#utility.yul\":2369:2471   */\n      swap2\n      swap1\n      pop\n      jump\t// out\n        /* \"#utility.yul\":2477:2657   */\n    tag_45:\n        /* \"#utility.yul\":2525:2602   */\n      0x4e487b7100000000000000000000000000000000000000000000000000000000\n        /* \"#utility.yul\":2522:2523   */\n      0x00\n        /* \"#utility.yul\":2515:2603   */\n      mstore\n        /* \"#utility.yul\":2622:2626   */\n      0x41\n        /* \"#utility.yul\":2619:2620   */\n      0x04\n        /* \"#utility.yul\":2612:2627   */\n      mstore\n        /* \"#utility.yul\":2646:2650   */\n      0x24\n        /* \"#utility.yul\":2643:2644   */\n      0x00\n        /* \"#utility.yul\":2636:2651   */\n      revert\n        /* \"#utility.yul\":2663:2944   */\n    tag_46:\n        /* \"#utility.yul\":2746:2773   */\n      tag_88\n        /* \"#utility.yul\":2768:2772   */\n      dup3\n        /* \"#utility.yul\":2746:2773   */\n      tag_44\n      jump\t// in\n    tag_88:\n        /* \"#utility.yul\":2738:2744   */\n      dup2\n        /* \"#utility.yul\":2734:2774   */\n      add\n        /* \"#utility.yul\":2876:2882   */\n      dup2\n        /* \"#utility.yul\":2864:2874   */\n      dup2\n        /* \"#utility.yul\":2861:2883   */\n      lt\n        /* \"#utility.yul\":2840:2858   */\n      0xffffffffffffffff\n        /* \"#utility.yul\":2828:2838   */\n      dup3\n        /* \"#utility.yul\":2825:2859   */\n      gt\n        /* \"#utility.yul\":2822:2884   */\n      or\n        /* \"#utility.yul\":2819:2907   */\n      iszero\n      tag_89\n      jumpi\n        /* \"#utility.yul\":2887:2905   */\n      tag_90\n      tag_45\n      jump\t// in\n    tag_90:\n        /* \"#utility.yul\":2819:2907   */\n    tag_89:\n        /* \"#utility.yul\":2927:2937   */\n      dup1\n        /* \"#utility.yul\":2923:2925   */\n      0x40\n        /* \"#utility.yul\":2916:2938   */\n      mstore\n        /* \"#utility.yul\":2706:2944   */\n      pop\n        /* \"#utility.yul\":2663:2944   */\n      pop\n      pop\n      jump\t// out\n        /* \"#utility.yul\":2950:3079   */\n    tag_47:\n        /* \"#utility.yul\":2984:2990   */\n      0x00\n        /* \"#utility.yul\":3011:3031   */\n      tag_92\n      tag_34\n      jump\t// in\n    tag_92:\n        /* \"#utility.yul\":3001:3031   */\n      swap1\n      pop\n        /* \"#utility.yul\":3040:3073   */\n      tag_93\n        /* \"#utility.yul\":3068:3072   */\n      dup3\n        /* \"#utility.yul\":3060:3066   */\n      dup3\n        /* \"#utility.yul\":3040:3073   */\n      tag_46\n      jump\t// in\n    tag_93:\n        /* \"#utility.yul\":2950:3079   */\n      swap2\n      swap1\n      pop\n      jump\t// out\n        /* \"#utility.yul\":3085:3393   */\n    tag_48:\n        /* \"#utility.yul\":3147:3151   */\n      0x00\n        /* \"#utility.yul\":3237:3255   */\n      0xffffffffffffffff\n        /* \"#utility.yul\":3229:3235   */\n      dup3\n        /* \"#utility.yul\":3226:3256   */\n      gt\n        /* \"#utility.yul\":3223:3279   */\n      iszero\n      tag_95\n      jumpi\n        /* \"#utility.yul\":3259:3277   */\n      tag_96\n      tag_45\n      jump\t// in\n    tag_96:\n        /* \"#utility.yul\":3223:3279   */\n    tag_95:\n        /* \"#utility.yul\":3297:3326   */\n      tag_97\n        /* \"#utility.yul\":3319:3325   */\n      dup3\n        /* \"#utility.yul\":3297:3326   */\n      tag_44\n      jump\t// in\n    tag_97:\n        /* \"#utility.yul\":3289:3326   */\n      swap1\n      pop\n        /* \"#utility.yul\":3381:3385   */\n      0x20\n        /* \"#utility.yul\":3375:3379   */\n      dup2\n        /* \"#utility.yul\":3371:3386   */\n      add\n        /* \"#utility.yul\":3363:3386   */\n      swap1\n      pop\n        /* \"#utility.yul\":3085:3393   */\n      swap2\n      swap1\n      pop\n      jump\t// out\n        /* \"#utility.yul\":3399:3547   */\n    tag_49:\n        /* \"#utility.yul\":3497:3503   */\n      dup3\n        /* \"#utility.yul\":3492:3495   */\n      dup2\n        /* \"#utility.yul\":3487:3490   */\n      dup4\n        /* \"#utility.yul\":3474:3504   */\n      calldatacopy\n        /* \"#utility.yul\":3538:3539   */\n      0x00\n        /* \"#utility.yul\":3529:3535   */\n      dup4\n        /* \"#utility.yul\":3524:3527   */\n      dup4\n        /* \"#utility.yul\":3520:3536   */\n      add\n        /* \"#utility.yul\":3513:3540   */\n      mstore\n        /* \"#utility.yul\":3399:3547   */\n      pop\n      pop\n      pop\n      jump\t// out\n        /* \"#utility.yul\":3553:3978   */\n    tag_50:\n        /* \"#utility.yul\":3631:3636   */\n      0x00\n        /* \"#utility.yul\":3656:3722   */\n      tag_100\n        /* \"#utility.yul\":3672:3721   */\n      tag_101\n        /* \"#utility.yul\":3714:3720   */\n      dup5\n        /* \"#utility.yul\":3672:3721   */\n      tag_48\n      jump\t// in\n    tag_101:\n        /* \"#utility.yul\":3656:3722   */\n      tag_47\n      jump\t// in\n    tag_100:\n        /* \"#utility.yul\":3647:3722   */\n      swap1\n      pop\n        /* \"#utility.yul\":3745:3751   */\n      dup3\n        /* \"#utility.yul\":3738:3743   */\n      dup2\n        /* \"#utility.yul\":3731:3752   */\n      mstore\n        /* \"#utility.yul\":3783:3787   */\n      0x20\n        /* \"#utility.yul\":3776:3781   */\n      dup2\n        /* \"#utility.yul\":3772:3788   */\n      add\n        /* \"#utility.yul\":3821:3824   */\n      dup5\n        /* \"#utility.yul\":3812:3818   */\n      dup5\n        /* \"#utility.yul\":3807:3810   */\n      dup5\n        /* \"#utility.yul\":3803:3819   */\n      add\n        /* \"#utility.yul\":3800:3825   */\n      gt\n        /* \"#utility.yul\":3797:3909   */\n      iszero\n      tag_102\n      jumpi\n        /* \"#utility.yul\":3828:3907   */\n      tag_103\n      tag_43\n      jump\t// in\n    tag_103:\n        /* \"#utility.yul\":3797:3909   */\n    tag_102:\n        /* \"#utility.yul\":3918:3972   */\n      tag_104\n        /* \"#utility.yul\":3965:3971   */\n      dup5\n        /* \"#utility.yul\":3960:3963   */\n      dup3\n        /* \"#utility.yul\":3955:3958   */\n      dup6\n        /* \"#utility.yul\":3918:3972   */\n      tag_49\n      jump\t// in\n    tag_104:\n        /* \"#utility.yul\":3637:3978   */\n      pop\n        /* \"#utility.yul\":3553:3978   */\n      swap4\n      swap3\n      pop\n      pop\n      pop\n      jump\t// out\n        /* \"#utility.yul\":3998:4338   */\n    tag_51:\n        /* \"#utility.yul\":4054:4059   */\n      0x00\n        /* \"#utility.yul\":4103:4106   */\n      dup3\n        /* \"#utility.yul\":4096:4100   */\n      0x1f\n        /* \"#utility.yul\":4088:4094   */\n      dup4\n        /* \"#utility.yul\":4084:4101   */\n      add\n        /* \"#utility.yul\":4080:4107   */\n      slt\n        /* \"#utility.yul\":4070:4192   */\n      tag_106\n      jumpi\n        /* \"#utility.yul\":4111:4190   */\n      tag_107\n      tag_37\n      jump\t// in\n    tag_107:\n        /* \"#utility.yul\":4070:4192   */\n    tag_106:\n        /* \"#utility.yul\":4228:4234   */\n      dup2\n        /* \"#utility.yul\":4215:4235   */\n      calldataload\n        /* \"#utility.yul\":4253:4332   */\n      tag_108\n        /* \"#utility.yul\":4328:4331   */\n      dup5\n        /* \"#utility.yul\":4320:4326   */\n      dup3\n        /* \"#utility.yul\":4313:4317   */\n      0x20\n        /* \"#utility.yul\":4305:4311   */\n      dup7\n        /* \"#utility.yul\":4301:4318   */\n      add\n        /* \"#utility.yul\":4253:4332   */\n      tag_50\n      jump\t// in\n    tag_108:\n        /* \"#utility.yul\":4244:4332   */\n      swap2\n      pop\n        /* \"#utility.yul\":4060:4338   */\n      pop\n        /* \"#utility.yul\":3998:4338   */\n      swap3\n      swap2\n      pop\n      pop\n      jump\t// out\n        /* \"#utility.yul\":4344:4853   */\n    tag_18:\n        /* \"#utility.yul\":4413:4419   */\n      0x00\n        /* \"#utility.yul\":4462:4464   */\n      0x20\n        /* \"#utility.yul\":4450:4459   */\n      dup3\n        /* \"#utility.yul\":4441:4448   */\n      dup5\n        /* \"#utility.yul\":4437:4460   */\n      sub\n        /* \"#utility.yul\":4433:4465   */\n      slt\n        /* \"#utility.yul\":4430:4549   */\n      iszero\n      tag_110\n      jumpi\n        /* \"#utility.yul\":4468:4547   */\n      tag_111\n      tag_35\n      jump\t// in\n    tag_111:\n        /* \"#utility.yul\":4430:4549   */\n    tag_110:\n        /* \"#utility.yul\":4616:4617   */\n      0x00\n        /* \"#utility.yul\":4605:4614   */\n      dup3\n        /* \"#utility.yul\":4601:4618   */\n      add\n        /* \"#utility.yul\":4588:4619   */\n      calldataload\n        /* \"#utility.yul\":4646:4664   */\n      0xffffffffffffffff\n        /* \"#utility.yul\":4638:4644   */\n      dup2\n        /* \"#utility.yul\":4635:4665   */\n      gt\n        /* \"#utility.yul\":4632:4749   */\n      iszero\n      tag_112\n      jumpi\n        /* \"#utility.yul\":4668:4747   */\n      tag_113\n      tag_36\n      jump\t// in\n    tag_113:\n        /* \"#utility.yul\":4632:4749   */\n    tag_112:\n        /* \"#utility.yul\":4773:4836   */\n      tag_114\n        /* \"#utility.yul\":4828:4835   */\n      dup5\n        /* \"#utility.yul\":4819:4825   */\n      dup3\n        /* \"#utility.yul\":4808:4817   */\n      dup6\n        /* \"#utility.yul\":4804:4826   */\n      add\n        /* \"#utility.yul\":4773:4836   */\n      tag_51\n      jump\t// in\n    tag_114:\n        /* \"#utility.yul\":4763:4836   */\n      swap2\n      pop\n        /* \"#utility.yul\":4559:4846   */\n      pop\n        /* \"#utility.yul\":4344:4853   */\n      swap3\n      swap2\n      pop\n      pop\n      jump\t// out\n        /* \"#utility.yul\":4859:5028   */\n    tag_52:\n        /* \"#utility.yul\":4943:4954   */\n      0x00\n        /* \"#utility.yul\":4977:4983   */\n      dup3\n        /* \"#utility.yul\":4972:4975   */\n      dup3\n        /* \"#utility.yul\":4965:4984   */\n      mstore\n        /* \"#utility.yul\":5017:5021   */\n      0x20\n        /* \"#utility.yul\":5012:5015   */\n      dup3\n        /* \"#utility.yul\":5008:5022   */\n      add\n        /* \"#utility.yul\":4993:5022   */\n      swap1\n      pop\n        /* \"#utility.yul\":4859:5028   */\n      swap3\n      swap2\n      pop\n      pop\n      jump\t// out\n        /* \"#utility.yul\":5034:5255   */\n    tag_53:\n        /* \"#utility.yul\":5174:5208   */\n      0x446f6e6174696f6e206d7573742062652067726561746572207468616e207a65\n        /* \"#utility.yul\":5170:5171   */\n      0x00\n        /* \"#utility.yul\":5162:5168   */\n      dup3\n        /* \"#utility.yul\":5158:5172   */\n      add\n        /* \"#utility.yul\":5151:5209   */\n      mstore\n        /* \"#utility.yul\":5243:5247   */\n      0x726f000000000000000000000000000000000000000000000000000000000000\n        /* \"#utility.yul\":5238:5240   */\n      0x20\n        /* \"#utility.yul\":5230:5236   */\n      dup3\n        /* \"#utility.yul\":5226:5241   */\n      add\n        /* \"#utility.yul\":5219:5248   */\n      mstore\n        /* \"#utility.yul\":5034:5255   */\n      pop\n      jump\t// out\n        /* \"#utility.yul\":5261:5627   */\n    tag_54:\n        /* \"#utility.yul\":5403:5406   */\n      0x00\n        /* \"#utility.yul\":5424:5491   */\n      tag_118\n        /* \"#utility.yul\":5488:5490   */\n      0x22\n        /* \"#utility.yul\":5483:5486   */\n      dup4\n        /* \"#utility.yul\":5424:5491   */\n      tag_52\n      jump\t// in\n    tag_118:\n        /* \"#utility.yul\":5417:5491   */\n      swap2\n      pop\n        /* \"#utility.yul\":5500:5593   */\n      tag_119\n        /* \"#utility.yul\":5589:5592   */\n      dup3\n        /* \"#utility.yul\":5500:5593   */\n      tag_53\n      jump\t// in\n    tag_119:\n        /* \"#utility.yul\":5618:5620   */\n      0x40\n        /* \"#utility.yul\":5613:5616   */\n      dup3\n        /* \"#utility.yul\":5609:5621   */\n      add\n        /* \"#utility.yul\":5602:5621   */\n      swap1\n      pop\n        /* \"#utility.yul\":5261:5627   */\n      swap2\n      swap1\n      pop\n      jump\t// out\n        /* \"#utility.yul\":5633:6052   */\n    tag_24:\n        /* \"#utility.yul\":5799:5803   */\n      0x00\n        /* \"#utility.yul\":5837:5839   */\n      0x20\n        /* \"#utility.yul\":5826:5835   */\n      dup3\n        /* \"#utility.yul\":5822:5840   */\n      add\n        /* \"#utility.yul\":5814:5840   */\n      swap1\n      pop\n        /* \"#utility.yul\":5886:5895   */\n      dup2\n        /* \"#utility.yul\":5880:5884   */\n      dup2\n        /* \"#utility.yul\":5876:5896   */\n      sub\n        /* \"#utility.yul\":5872:5873   */\n      0x00\n        /* \"#utility.yul\":5861:5870   */\n      dup4\n        /* \"#utility.yul\":5857:5874   */\n      add\n        /* \"#utility.yul\":5850:5897   */\n      mstore\n        /* \"#utility.yul\":5914:6045   */\n      tag_121\n        /* \"#utility.yul\":6040:6044   */\n      dup2\n        /* \"#utility.yul\":5914:6045   */\n      tag_54\n      jump\t// in\n    tag_121:\n        /* \"#utility.yul\":5906:6045   */\n      swap1\n      pop\n        /* \"#utility.yul\":5633:6052   */\n      swap2\n      swap1\n      pop\n      jump\t// out\n        /* \"#utility.yul\":6058:6206   */\n    tag_55:\n        /* \"#utility.yul\":6160:6171   */\n      0x00\n        /* \"#utility.yul\":6197:6200   */\n      dup2\n        /* \"#utility.yul\":6182:6200   */\n      swap1\n      pop\n        /* \"#utility.yul\":6058:6206   */\n      swap3\n      swap2\n      pop\n      pop\n      jump\t// out\n        /* \"#utility.yul\":6236:6566   */\n    tag_56:\n        /* \"#utility.yul\":6352:6355   */\n      0x00\n        /* \"#utility.yul\":6373:6462   */\n      tag_124\n        /* \"#utility.yul\":6455:6461   */\n      dup4\n        /* \"#utility.yul\":6450:6453   */\n      dup6\n        /* \"#utility.yul\":6373:6462   */\n      tag_55\n      jump\t// in\n    tag_124:\n        /* \"#utility.yul\":6366:6462   */\n      swap4\n      pop\n        /* \"#utility.yul\":6472:6528   */\n      tag_125\n        /* \"#utility.yul\":6521:6527   */\n      dup4\n        /* \"#utility.yul\":6516:6519   */\n      dup6\n        /* \"#utility.yul\":6509:6514   */\n      dup5\n        /* \"#utility.yul\":6472:6528   */\n      tag_49\n      jump\t// in\n    tag_125:\n        /* \"#utility.yul\":6553:6559   */\n      dup3\n        /* \"#utility.yul\":6548:6551   */\n      dup5\n        /* \"#utility.yul\":6544:6560   */\n      add\n        /* \"#utility.yul\":6537:6560   */\n      swap1\n      pop\n        /* \"#utility.yul\":6236:6566   */\n      swap4\n      swap3\n      pop\n      pop\n      pop\n      jump\t// out\n        /* \"#utility.yul\":6572:6867   */\n    tag_26:\n        /* \"#utility.yul\":6714:6717   */\n      0x00\n        /* \"#utility.yul\":6736:6841   */\n      tag_127\n        /* \"#utility.yul\":6837:6840   */\n      dup3\n        /* \"#utility.yul\":6828:6834   */\n      dup5\n        /* \"#utility.yul\":6820:6826   */\n      dup7\n        /* \"#utility.yul\":6736:6841   */\n      tag_56\n      jump\t// in\n    tag_127:\n        /* \"#utility.yul\":6729:6841   */\n      swap2\n      pop\n        /* \"#utility.yul\":6858:6861   */\n      dup2\n        /* \"#utility.yul\":6851:6861   */\n      swap1\n      pop\n        /* \"#utility.yul\":6572:6867   */\n      swap4\n      swap3\n      pop\n      pop\n      pop\n      jump\t// out\n        /* \"#utility.yul\":6873:7053   */\n    tag_57:\n        /* \"#utility.yul\":6921:6998   */\n      0x4e487b7100000000000000000000000000000000000000000000000000000000\n        /* \"#utility.yul\":6918:6919   */\n      0x00\n        /* \"#utility.yul\":6911:6999   */\n      mstore\n        /* \"#utility.yul\":7018:7022   */\n      0x11\n        /* \"#utility.yul\":7015:7016   */\n      0x04\n        /* \"#utility.yul\":7008:7023   */\n      mstore\n        /* \"#utility.yul\":7042:7046   */\n      0x24\n        /* \"#utility.yul\":7039:7040   */\n      0x00\n        /* \"#utility.yul\":7032:7047   */\n      revert\n        /* \"#utility.yul\":7059:7250   */\n    tag_28:\n        /* \"#utility.yul\":7099:7102   */\n      0x00\n        /* \"#utility.yul\":7118:7138   */\n      tag_130\n        /* \"#utility.yul\":7136:7137   */\n      dup3\n        /* \"#utility.yul\":7118:7138   */\n      tag_41\n      jump\t// in\n    tag_130:\n        /* \"#utility.yul\":7113:7138   */\n      swap2\n      pop\n        /* \"#utility.yul\":7152:7172   */\n      tag_131\n        /* \"#utility.yul\":7170:7171   */\n      dup4\n        /* \"#utility.yul\":7152:7172   */\n      tag_41\n      jump\t// in\n    tag_131:\n        /* \"#utility.yul\":7147:7172   */\n      swap3\n      pop\n        /* \"#utility.yul\":7195:7196   */\n      dup3\n        /* \"#utility.yul\":7192:7193   */\n      dup3\n        /* \"#utility.yul\":7188:7197   */\n      add\n        /* \"#utility.yul\":7181:7197   */\n      swap1\n      pop\n        /* \"#utility.yul\":7216:7219   */\n      dup1\n        /* \"#utility.yul\":7213:7214   */\n      dup3\n        /* \"#utility.yul\":7210:7220   */\n      gt\n        /* \"#utility.yul\":7207:7243   */\n      iszero\n      tag_132\n      jumpi\n        /* \"#utility.yul\":7223:7241   */\n      tag_133\n      tag_57\n      jump\t// in\n    tag_133:\n        /* \"#utility.yul\":7207:7243   */\n    tag_132:\n        /* \"#utility.yul\":7059:7250   */\n      swap3\n      swap2\n      pop\n      pop\n      jump\t// out\n        /* \"#utility.yul\":7280:7597   */\n    tag_58:\n        /* \"#utility.yul\":7378:7381   */\n      0x00\n        /* \"#utility.yul\":7399:7470   */\n      tag_135\n        /* \"#utility.yul\":7463:7469   */\n      dup4\n        /* \"#utility.yul\":7458:7461   */\n      dup6\n        /* \"#utility.yul\":7399:7470   */\n      tag_52\n      jump\t// in\n    tag_135:\n        /* \"#utility.yul\":7392:7470   */\n      swap4\n      pop\n        /* \"#utility.yul\":7480:7536   */\n      tag_136\n        /* \"#utility.yul\":7529:7535   */\n      dup4\n        /* \"#utility.yul\":7524:7527   */\n      dup6\n        /* \"#utility.yul\":7517:7522   */\n      dup5\n        /* \"#utility.yul\":7480:7536   */\n      tag_49\n      jump\t// in\n    tag_136:\n        /* \"#utility.yul\":7561:7590   */\n      tag_137\n        /* \"#utility.yul\":7583:7589   */\n      dup4\n        /* \"#utility.yul\":7561:7590   */\n      tag_44\n      jump\t// in\n    tag_137:\n        /* \"#utility.yul\":7556:7559   */\n      dup5\n        /* \"#utility.yul\":7552:7591   */\n      add\n        /* \"#utility.yul\":7545:7591   */\n      swap1\n      pop\n        /* \"#utility.yul\":7280:7597   */\n      swap4\n      swap3\n      pop\n      pop\n      pop\n      jump\t// out\n        /* \"#utility.yul\":7603:8156   */\n    tag_31:\n        /* \"#utility.yul\":7782:7786   */\n      0x00\n        /* \"#utility.yul\":7820:7822   */\n      0x60\n        /* \"#utility.yul\":7809:7818   */\n      dup3\n        /* \"#utility.yul\":7805:7823   */\n      add\n        /* \"#utility.yul\":7797:7823   */\n      swap1\n      pop\n        /* \"#utility.yul\":7869:7878   */\n      dup2\n        /* \"#utility.yul\":7863:7867   */\n      dup2\n        /* \"#utility.yul\":7859:7879   */\n      sub\n        /* \"#utility.yul\":7855:7856   */\n      0x00\n        /* \"#utility.yul\":7844:7853   */\n      dup4\n        /* \"#utility.yul\":7840:7857   */\n      add\n        /* \"#utility.yul\":7833:7880   */\n      mstore\n        /* \"#utility.yul\":7897:7985   */\n      tag_139\n        /* \"#utility.yul\":7980:7984   */\n      dup2\n        /* \"#utility.yul\":7971:7977   */\n      dup7\n        /* \"#utility.yul\":7963:7969   */\n      dup9\n        /* \"#utility.yul\":7897:7985   */\n      tag_58\n      jump\t// in\n    tag_139:\n        /* \"#utility.yul\":7889:7985   */\n      swap1\n      pop\n        /* \"#utility.yul\":7995:8067   */\n      tag_140\n        /* \"#utility.yul\":8063:8065   */\n      0x20\n        /* \"#utility.yul\":8052:8061   */\n      dup4\n        /* \"#utility.yul\":8048:8066   */\n      add\n        /* \"#utility.yul\":8039:8045   */\n      dup6\n        /* \"#utility.yul\":7995:8067   */\n      tag_42\n      jump\t// in\n    tag_140:\n        /* \"#utility.yul\":8077:8149   */\n      tag_141\n        /* \"#utility.yul\":8145:8147   */\n      0x40\n        /* \"#utility.yul\":8134:8143   */\n      dup4\n        /* \"#utility.yul\":8130:8148   */\n      add\n        /* \"#utility.yul\":8121:8127   */\n      dup5\n        /* \"#utility.yul\":8077:8149   */\n      tag_42\n      jump\t// in\n    tag_141:\n        /* \"#utility.yul\":7603:8156   */\n      swap6\n      swap5\n      pop\n      pop\n      pop\n      pop\n      pop\n      jump\t// out\n\n    auxdata: 0xa26469706673582212209f9ac89538df9188fe734e3685d5b2f92c2100f19bda6c4aef4818e94c111dde64736f6c634300081a0033\n}\n",
				"bytecode": {
					"linkReferences": {},
					"object": "6080604052348015600e575f80fd5b5061065f8061001c5f395ff3fe608060405260043610610033575f3560e01c80633936c8e8146100375780634e0c1e371461005357806388b867df1461008f575b5f80fd5b610051600480360381019061004c9190610280565b6100cb565b005b34801561005e575f80fd5b5061007960048036038101906100749190610280565b6101b9565b60405161008691906102e3565b60405180910390f35b34801561009a575f80fd5b506100b560048036038101906100b09190610434565b6101e2565b6040516100c291906102e3565b60405180910390f35b5f341161010d576040517f08c379a0000000000000000000000000000000000000000000000000000000008152600401610104906104fb565b60405180910390fd5b345f838360405161011f929190610547565b90815260200160405180910390205f82825461013b919061058c565b925050819055503373ffffffffffffffffffffffffffffffffffffffff167f71399051bc95e34c2315bbb2c6cf0df79957a51b6d385f9dd26fc1a33c6926b18383345f878760405161018e929190610547565b9081526020016040518091039020546040516101ad94939291906105eb565b60405180910390a25050565b5f8083836040516101cb929190610547565b908152602001604051809103902054905092915050565b5f818051602081018201805184825260208301602085012081835280955050505050505f915090505481565b5f604051905090565b5f80fd5b5f80fd5b5f80fd5b5f80fd5b5f80fd5b5f8083601f8401126102405761023f61021f565b5b8235905067ffffffffffffffff81111561025d5761025c610223565b5b60208301915083600182028301111561027957610278610227565b5b9250929050565b5f806020838503121561029657610295610217565b5b5f83013567ffffffffffffffff8111156102b3576102b261021b565b5b6102bf8582860161022b565b92509250509250929050565b5f819050919050565b6102dd816102cb565b82525050565b5f6020820190506102f65f8301846102d4565b92915050565b5f80fd5b5f601f19601f8301169050919050565b7f4e487b71000000000000000000000000000000000000000000000000000000005f52604160045260245ffd5b61034682610300565b810181811067ffffffffffffffff8211171561036557610364610310565b5b80604052505050565b5f61037761020e565b9050610383828261033d565b919050565b5f67ffffffffffffffff8211156103a2576103a1610310565b5b6103ab82610300565b9050602081019050919050565b828183375f83830152505050565b5f6103d86103d384610388565b61036e565b9050828152602081018484840111156103f4576103f36102fc565b5b6103ff8482856103b8565b509392505050565b5f82601f83011261041b5761041a61021f565b5b813561042b8482602086016103c6565b91505092915050565b5f6020828403121561044957610448610217565b5b5f82013567ffffffffffffffff8111156104665761046561021b565b5b61047284828501610407565b91505092915050565b5f82825260208201905092915050565b7f446f6e6174696f6e206d7573742062652067726561746572207468616e207a655f8201527f726f000000000000000000000000000000000000000000000000000000000000602082015250565b5f6104e560228361047b565b91506104f08261048b565b604082019050919050565b5f6020820190508181035f830152610512816104d9565b9050919050565b5f81905092915050565b5f61052e8385610519565b935061053b8385846103b8565b82840190509392505050565b5f610553828486610523565b91508190509392505050565b7f4e487b71000000000000000000000000000000000000000000000000000000005f52601160045260245ffd5b5f610596826102cb565b91506105a1836102cb565b92508282019050808211156105b9576105b861055f565b5b92915050565b5f6105ca838561047b565b93506105d78385846103b8565b6105e083610300565b840190509392505050565b5f6060820190508181035f8301526106048186886105bf565b905061061360208301856102d4565b61062060408301846102d4565b9594505050505056fea26469706673582212209f9ac89538df9188fe734e3685d5b2f92c2100f19bda6c4aef4818e94c111dde64736f6c634300081a0033",
					"opcodes": "PUSH1 0x80 PUSH1 0x40 MSTORE CALLVALUE DUP1 ISZERO PUSH1 0xE JUMPI PUSH0 DUP1 REVERT JUMPDEST POP PUSH2 0x65F DUP1 PUSH2 0x1C PUSH0 CODECOPY PUSH0 RETURN INVALID PUSH1 0x80 PUSH1 0x40 MSTORE PUSH1 0x4 CALLDATASIZE LT PUSH2 0x33 JUMPI PUSH0 CALLDATALOAD PUSH1 0xE0 SHR DUP1 PUSH4 0x3936C8E8 EQ PUSH2 0x37 JUMPI DUP1 PUSH4 0x4E0C1E37 EQ PUSH2 0x53 JUMPI DUP1 PUSH4 0x88B867DF EQ PUSH2 0x8F JUMPI JUMPDEST PUSH0 DUP1 REVERT JUMPDEST PUSH2 0x51 PUSH1 0x4 DUP1 CALLDATASIZE SUB DUP2 ADD SWAP1 PUSH2 0x4C SWAP2 SWAP1 PUSH2 0x280 JUMP JUMPDEST PUSH2 0xCB JUMP JUMPDEST STOP JUMPDEST CALLVALUE DUP1 ISZERO PUSH2 0x5E JUMPI PUSH0 DUP1 REVERT JUMPDEST POP PUSH2 0x79 PUSH1 0x4 DUP1 CALLDATASIZE SUB DUP2 ADD SWAP1 PUSH2 0x74 SWAP2 SWAP1 PUSH2 0x280 JUMP JUMPDEST PUSH2 0x1B9 JUMP JUMPDEST PUSH1 0x40 MLOAD PUSH2 0x86 SWAP2 SWAP1 PUSH2 0x2E3 JUMP JUMPDEST PUSH1 0x40 MLOAD DUP1 SWAP2 SUB SWAP1 RETURN JUMPDEST CALLVALUE DUP1 ISZERO PUSH2 0x9A JUMPI PUSH0 DUP1 REVERT JUMPDEST POP PUSH2 0xB5 PUSH1 0x4 DUP1 CALLDATASIZE SUB DUP2 ADD SWAP1 PUSH2 0xB0 SWAP2 SWAP1 PUSH2 0x434 JUMP JUMPDEST PUSH2 0x1E2 JUMP JUMPDEST PUSH1 0x40 MLOAD PUSH2 0xC2 SWAP2 SWAP1 PUSH2 0x2E3 JUMP JUMPDEST PUSH1 0x40 MLOAD DUP1 SWAP2 SUB SWAP1 RETURN JUMPDEST PUSH0 CALLVALUE GT PUSH2 0x10D JUMPI PUSH1 0x40 MLOAD PUSH32 0x8C379A000000000000000000000000000000000000000000000000000000000 DUP2 MSTORE PUSH1 0x4 ADD PUSH2 0x104 SWAP1 PUSH2 0x4FB JUMP JUMPDEST PUSH1 0x40 MLOAD DUP1 SWAP2 SUB SWAP1 REVERT JUMPDEST CALLVALUE PUSH0 DUP4 DUP4 PUSH1 0x40 MLOAD PUSH2 0x11F SWAP3 SWAP2 SWAP1 PUSH2 0x547 JUMP JUMPDEST SWAP1 DUP2 MSTORE PUSH1 0x20 ADD PUSH1 0x40 MLOAD DUP1 SWAP2 SUB SWAP1 KECCAK256 PUSH0 DUP3 DUP3 SLOAD PUSH2 0x13B SWAP2 SWAP1 PUSH2 0x58C JUMP JUMPDEST SWAP3 POP POP DUP2 SWAP1 SSTORE POP CALLER PUSH20 0xFFFFFFFFFFFFFFFFFFFFFFFFFFFFFFFFFFFFFFFF AND PUSH32 0x71399051BC95E34C2315BBB2C6CF0DF79957A51B6D385F9DD26FC1A33C6926B1 DUP4 DUP4 CALLVALUE PUSH0 DUP8 DUP8 PUSH1 0x40 MLOAD PUSH2 0x18E SWAP3 SWAP2 SWAP1 PUSH2 0x547 JUMP JUMPDEST SWAP1 DUP2 MSTORE PUSH1 0x20 ADD PUSH1 0x40 MLOAD DUP1 SWAP2 SUB SWAP1 KECCAK256 SLOAD PUSH1 0x40 MLOAD PUSH2 0x1AD SWAP5 SWAP4 SWAP3 SWAP2 SWAP1 PUSH2 0x5EB JUMP JUMPDEST PUSH1 0x40 MLOAD DUP1 SWAP2 SUB SWAP1 LOG2 POP POP JUMP JUMPDEST PUSH0 DUP1 DUP4 DUP4 PUSH1 0x40 MLOAD PUSH2 0x1CB SWAP3 SWAP2 SWAP1 PUSH2 0x547 JUMP JUMPDEST SWAP1 DUP2 MSTORE PUSH1 0x20 ADD PUSH1 0x40 MLOAD DUP1 SWAP2 SUB SWAP1 KECCAK256 SLOAD SWAP1 POP SWAP3 SWAP2 POP POP JUMP JUMPDEST PUSH0 DUP2 DUP1 MLOAD PUSH1 0x20 DUP2 ADD DUP3 ADD DUP1 MLOAD DUP5 DUP3 MSTORE PUSH1 0x20 DUP4 ADD PUSH1 0x20 DUP6 ADD KECCAK256 DUP2 DUP4 MSTORE DUP1 SWAP6 POP POP POP POP POP POP PUSH0 SWAP2 POP SWAP1 POP SLOAD DUP2 JUMP JUMPDEST PUSH0 PUSH1 0x40 MLOAD SWAP1 POP SWAP1 JUMP JUMPDEST PUSH0 DUP1 REVERT JUMPDEST PUSH0 DUP1 REVERT JUMPDEST PUSH0 DUP1 REVERT JUMPDEST PUSH0 DUP1 REVERT JUMPDEST PUSH0 DUP1 REVERT JUMPDEST PUSH0 DUP1 DUP4 PUSH1 0x1F DUP5 ADD SLT PUSH2 0x240 JUMPI PUSH2 0x23F PUSH2 0x21F JUMP JUMPDEST JUMPDEST DUP3 CALLDATALOAD SWAP1 POP PUSH8 0xFFFFFFFFFFFFFFFF DUP2 GT ISZERO PUSH2 0x25D JUMPI PUSH2 0x25C PUSH2 0x223 JUMP JUMPDEST JUMPDEST PUSH1 0x20 DUP4 ADD SWAP2 POP DUP4 PUSH1 0x1 DUP3 MUL DUP4 ADD GT ISZERO PUSH2 0x279 JUMPI PUSH2 0x278 PUSH2 0x227 JUMP JUMPDEST JUMPDEST SWAP3 POP SWAP3 SWAP1 POP JUMP JUMPDEST PUSH0 DUP1 PUSH1 0x20 DUP4 DUP6 SUB SLT ISZERO PUSH2 0x296 JUMPI PUSH2 0x295 PUSH2 0x217 JUMP JUMPDEST JUMPDEST PUSH0 DUP4 ADD CALLDATALOAD PUSH8 0xFFFFFFFFFFFFFFFF DUP2 GT ISZERO PUSH2 0x2B3 JUMPI PUSH2 0x2B2 PUSH2 0x21B JUMP JUMPDEST JUMPDEST PUSH2 0x2BF DUP6 DUP3 DUP7 ADD PUSH2 0x22B JUMP JUMPDEST SWAP3 POP SWAP3 POP POP SWAP3 POP SWAP3 SWAP1 POP JUMP JUMPDEST PUSH0 DUP2 SWAP1 POP SWAP2 SWAP1 POP JUMP JUMPDEST PUSH2 0x2DD DUP2 PUSH2 0x2CB JUMP JUMPDEST DUP3 MSTORE POP POP JUMP JUMPDEST PUSH0 PUSH1 0x20 DUP3 ADD SWAP1 POP PUSH2 0x2F6 PUSH0 DUP4 ADD DUP5 PUSH2 0x2D4 JUMP JUMPDEST SWAP3 SWAP2 POP POP JUMP JUMPDEST PUSH0 DUP1 REVERT JUMPDEST PUSH0 PUSH1 0x1F NOT PUSH1 0x1F DUP4 ADD AND SWAP1 POP SWAP2 SWAP1 POP JUMP JUMPDEST PUSH32 0x4E487B7100000000000000000000000000000000000000000000000000000000 PUSH0 MSTORE PUSH1 0x41 PUSH1 0x4 MSTORE PUSH1 0x24 PUSH0 REVERT JUMPDEST PUSH2 0x346 DUP3 PUSH2 0x300 JUMP JUMPDEST DUP2 ADD DUP2 DUP2 LT PUSH8 0xFFFFFFFFFFFFFFFF DUP3 GT OR ISZERO PUSH2 0x365 JUMPI PUSH2 0x364 PUSH2 0x310 JUMP JUMPDEST JUMPDEST DUP1 PUSH1 0x40 MSTORE POP POP POP JUMP JUMPDEST PUSH0 PUSH2 0x377 PUSH2 0x20E JUMP JUMPDEST SWAP1 POP PUSH2 0x383 DUP3 DUP3 PUSH2 0x33D JUMP JUMPDEST SWAP2 SWAP1 POP JUMP JUMPDEST PUSH0 PUSH8 0xFFFFFFFFFFFFFFFF DUP3 GT ISZERO PUSH2 0x3A2 JUMPI PUSH2 0x3A1 PUSH2 0x310 JUMP JUMPDEST JUMPDEST PUSH2 0x3AB DUP3 PUSH2 0x300 JUMP JUMPDEST SWAP1 POP PUSH1 0x20 DUP2 ADD SWAP1 POP SWAP2 SWAP1 POP JUMP JUMPDEST DUP3 DUP2 DUP4 CALLDATACOPY PUSH0 DUP4 DUP4 ADD MSTORE POP POP POP JUMP JUMPDEST PUSH0 PUSH2 0x3D8 PUSH2 0x3D3 DUP5 PUSH2 0x388 JUMP JUMPDEST PUSH2 0x36E JUMP JUMPDEST SWAP1 POP DUP3 DUP2 MSTORE PUSH1 0x20 DUP2 ADD DUP5 DUP5 DUP5 ADD GT ISZERO PUSH2 0x3F4 JUMPI PUSH2 0x3F3 PUSH2 0x2FC JUMP JUMPDEST JUMPDEST PUSH2 0x3FF DUP5 DUP3 DUP6 PUSH2 0x3B8 JUMP JUMPDEST POP SWAP4 SWAP3 POP POP POP JUMP JUMPDEST PUSH0 DUP3 PUSH1 0x1F DUP4 ADD SLT PUSH2 0x41B JUMPI PUSH2 0x41A PUSH2 0x21F JUMP JUMPDEST JUMPDEST DUP2 CALLDATALOAD PUSH2 0x42B DUP5 DUP3 PUSH1 0x20 DUP7 ADD PUSH2 0x3C6 JUMP JUMPDEST SWAP2 POP POP SWAP3 SWAP2 POP POP JUMP JUMPDEST PUSH0 PUSH1 0x20 DUP3 DUP5 SUB SLT ISZERO PUSH2 0x449 JUMPI PUSH2 0x448 PUSH2 0x217 JUMP JUMPDEST JUMPDEST PUSH0 DUP3 ADD CALLDATALOAD PUSH8 0xFFFFFFFFFFFFFFFF DUP2 GT ISZERO PUSH2 0x466 JUMPI PUSH2 0x465 PUSH2 0x21B JUMP JUMPDEST JUMPDEST PUSH2 0x472 DUP5 DUP3 DUP6 ADD PUSH2 0x407 JUMP JUMPDEST SWAP2 POP POP SWAP3 SWAP2 POP POP JUMP JUMPDEST PUSH0 DUP3 DUP3 MSTORE PUSH1 0x20 DUP3 ADD SWAP1 POP SWAP3 SWAP2 POP POP JUMP JUMPDEST PUSH32 0x446F6E6174696F6E206D7573742062652067726561746572207468616E207A65 PUSH0 DUP3 ADD MSTORE PUSH32 0x726F000000000000000000000000000000000000000000000000000000000000 PUSH1 0x20 DUP3 ADD MSTORE POP JUMP JUMPDEST PUSH0 PUSH2 0x4E5 PUSH1 0x22 DUP4 PUSH2 0x47B JUMP JUMPDEST SWAP2 POP PUSH2 0x4F0 DUP3 PUSH2 0x48B JUMP JUMPDEST PUSH1 0x40 DUP3 ADD SWAP1 POP SWAP2 SWAP1 POP JUMP JUMPDEST PUSH0 PUSH1 0x20 DUP3 ADD SWAP1 POP DUP2 DUP2 SUB PUSH0 DUP4 ADD MSTORE PUSH2 0x512 DUP2 PUSH2 0x4D9 JUMP JUMPDEST SWAP1 POP SWAP2 SWAP1 POP JUMP JUMPDEST PUSH0 DUP2 SWAP1 POP SWAP3 SWAP2 POP POP JUMP JUMPDEST PUSH0 PUSH2 0x52E DUP4 DUP6 PUSH2 0x519 JUMP JUMPDEST SWAP4 POP PUSH2 0x53B DUP4 DUP6 DUP5 PUSH2 0x3B8 JUMP JUMPDEST DUP3 DUP5 ADD SWAP1 POP SWAP4 SWAP3 POP POP POP JUMP JUMPDEST PUSH0 PUSH2 0x553 DUP3 DUP5 DUP7 PUSH2 0x523 JUMP JUMPDEST SWAP2 POP DUP2 SWAP1 POP SWAP4 SWAP3 POP POP POP JUMP JUMPDEST PUSH32 0x4E487B7100000000000000000000000000000000000000000000000000000000 PUSH0 MSTORE PUSH1 0x11 PUSH1 0x4 MSTORE PUSH1 0x24 PUSH0 REVERT JUMPDEST PUSH0 PUSH2 0x596 DUP3 PUSH2 0x2CB JUMP JUMPDEST SWAP2 POP PUSH2 0x5A1 DUP4 PUSH2 0x2CB JUMP JUMPDEST SWAP3 POP DUP3 DUP3 ADD SWAP1 POP DUP1 DUP3 GT ISZERO PUSH2 0x5B9 JUMPI PUSH2 0x5B8 PUSH2 0x55F JUMP JUMPDEST JUMPDEST SWAP3 SWAP2 POP POP JUMP JUMPDEST PUSH0 PUSH2 0x5CA DUP4 DUP6 PUSH2 0x47B JUMP JUMPDEST SWAP4 POP PUSH2 0x5D7 DUP4 DUP6 DUP5 PUSH2 0x3B8 JUMP JUMPDEST PUSH2 0x5E0 DUP4 PUSH2 0x300 JUMP JUMPDEST DUP5 ADD SWAP1 POP SWAP4 SWAP3 POP POP POP JUMP JUMPDEST PUSH0 PUSH1 0x60 DUP3 ADD SWAP1 POP DUP2 DUP2 SUB PUSH0 DUP4 ADD MSTORE PUSH2 0x604 DUP2 DUP7 DUP9 PUSH2 0x5BF JUMP JUMPDEST SWAP1 POP PUSH2 0x613 PUSH1 0x20 DUP4 ADD DUP6 PUSH2 0x2D4 JUMP JUMPDEST PUSH2 0x620 PUSH1 0x40 DUP4 ADD DUP5 PUSH2 0x2D4 JUMP JUMPDEST SWAP6 SWAP5 POP POP POP POP POP JUMP INVALID LOG2 PUSH5 0x6970667358 0x22 SLT KECCAK256 SWAP16 SWAP11 0xC8 SWAP6 CODESIZE 0xDF SWAP2 DUP9 INVALID PUSH20 0x4E3685D5B2F92C2100F19BDA6C4AEF4818E94C11 SAR 0xDE PUSH5 0x736F6C6343 STOP ADDMOD BYTE STOP CALLER "
				},
				"gasEstimates": {
					"creation": {
						"codeDepositCost": "326200",
						"executionCost": "360",
						"totalCost": "326560"
					},
					"external": {
						"donateToCause(string)": "infinite",
						"donationsForCause(string)": "infinite",
						"getTotalDonations(string)": "infinite"
					}
				},
				"methodIdentifiers": {
					"donateToCause(string)": "3936c8e8",
					"donationsForCause(string)": "88b867df",
					"getTotalDonations(string)": "4e0c1e37"
				}
			},
			"storageLayout": {
				"storage": [
					{
						"astId": 5,
						"contract": "project-20/contracts/contract.sol:DonationTracker",
						"label": "donationsForCause",
						"offset": 0,
						"slot": "0",
						"type": "t_mapping(t_string_memory_ptr,t_uint256)"
					}
				],
				"types": {
					"t_mapping(t_string_memory_ptr,t_uint256)": {
						"encoding": "mapping",
						"key": "t_string_memory_ptr",
						"label": "mapping(string => uint256)",
						"numberOfBytes": "32",
						"value": "t_uint256"
					},
					"t_string_memory_ptr": {
						"encoding": "bytes",
						"label": "string",
						"numberOfBytes": "32"
					},
					"t_uint256": {
						"encoding": "inplace",
						"label": "uint256",
						"numberOfBytes": "32"
					}
				}
			},
			"userdoc": {
				"kind": "user",
				"methods": {},
				"version": 1
			}
		}
	}
}